:020000040000FA
:100000000C9463000C948B000C948B000C948B006C
:100010000C948B000C948B000C948B000C94E701D7
:100020000C948B000C948B000C948B000C94690244
:100030000C948B000C948B000C948B000C948B0014
:100040000C949D010C948B000C948B000C948B00F1
:100050000C948B000C948B000C948B000C948B00F4
:100060000C948B000C948B000000000023002600F1
:1000700029000200000000240027002A00000000E0
:1000800000250028002B00040404040404040402D6
:100090000202020202030303030303010204081025
:1000A00020408001020408102001020408102000F2
:1000B0000000080002010000030407000000000027
:1000C00000000000D10611241FBECFEFD8E0DEBF34
:1000D000CDBF11E0A0E0B1E0ECEFFEE002C0059082
:1000E0000D92AA34B107D9F721E0AAE4B1E001C02A
:1000F0001D92AF38B207E1F710E0C3E6D0E004C0CC
:100100002197FE010E947607C236D107C9F70E94E7
:1001100025030C947C070C940000CF92DF92EF92A1
:10012000FF92DC01A03282E0B807D4F5A53BB1050F
:1001300014F0A4EBB0E040918D0128E830E0241BDE
:10014000310947FD3395220F331F220F331F6901F9
:10015000330FEE08FF0840918E0128E532E0241BA2
:10016000310947FD3395220F331F220F331F032E12
:10017000000C440B550B2C193D094E095F09B7FFC4
:1001800002C0B0E0A0E00E94160724EB30E040E09F
:1001900050E00E94EC06C20ED31EE41EF51ED601EE
:1001A000E0918C01EC3080F520918D0188E890E0A1
:1001B000821B910927FD9395880F991F880F991F1E
:1001C000A817B90784F020918E0188E592E0821B80
:1001D000910927FD9395880F991F880F991FA817DC
:1001E000B9070CF4CD010297880F991F4FB7F89407
:1001F0002E2F30E0F901EE0FFF1FE20FF31FE85939
:10020000FE4F928381834FBFFF90EF90DF90CF909E
:100210000895833081F028F4813099F08230A9F07C
:1002200008958730A9F08830C9F08430B1F4809106
:1002300080008F7D03C0809180008F778093800045
:10024000089584B58F7784BD089584B58F7DFBCFE5
:100250008091B0008F778093B00008958091B000B6
:100260008F7DF9CF1F93CF93DF93282F30E0F901D3
:10027000E155FF4F8491F901E556FF4FD491F90103
:10028000E957FF4FC491CC23A9F0162F81110E948A
:100290000901EC2FF0E0EE0FFF1FE358FF4FA5918F
:1002A000B4918FB7F894EC91111108C0D095DE236A
:1002B000DC938FBFDF91CF911F910895DE2BF8CF94
:1002C000CF93DF9390E0FC01E556FF4F24918957CF
:1002D0009F4FFC0184918823D1F090E0880F991FF3
:1002E000FC01ED58FF4FA591B491FC01E358FF4F7D
:1002F000C591D49161110EC09FB7F8948C91E22FF3
:10030000E0958E238C932881E223E8839FBFDF91C1
:10031000CF9108958FB7F894EC91E22BEC938FBFB7
:10032000F6CF2FB7F89460916401709165018091C8
:100330006601909167012FBF08951F920F920FB62B
:100340000F9211242F933F938F939F93AF93BF935B
:100350008091640190916501A0916601B09167015F
:100360003091630123E0230F2D3758F50196A11D2D
:10037000B11D209363018093640190936501A09364
:100380006601B093670180915F0190916001A09137
:100390006101B09162010196A11DB11D80935F01C1
:1003A00090936001A0936101B0936201BF91AF91FE
:1003B0009F918F913F912F910F900FBE0F901F90A3
:1003C000189526E8230F0296A11DB11DD2CF1F92CA
:1003D0000F920FB60F9211242F933F934F935F9379
:1003E0006F937F938F939F93AF93BF93EF93FF93FD
:1003F0008091510190915201A0915301B09154010B
:10040000892B8A2B8B2BD1F190914C01E0914D01DE
:10041000F0914E01808189278083809151019091D4
:100420005201A0915301B0915401181619061A06F1
:100430001B069CF48091510190915201A0915301AF
:10044000B09154010197A109B10980935101909392
:100450005201A0935301B0935401FF91EF91BF91CA
:10046000AF919F918F917F916F915F914F913F914C
:100470002F910F900FBE0F901F9018958091000143
:10048000E2E7F0E0E4919FEF90930001E13051F05A
:1004900030F0E23069F060E00E943201DECF10926D
:1004A0006E00F9CF90916F009D7F90936F00F3CF16
:1004B000909170009D7F9093700091E09093B000B8
:1004C0009091B100987F94609093B1001092B30026
:1004D000E2CF1F920F920FB60F9211242F933F93EA
:1004E0004F935F936F937F938F939F93AF93BF933C
:1004F000CF93DF93EF93FF9380914B01C0914A011B
:10050000D0E087FF24C01092850010928400809173
:100510004B018F5F80934B0180914B01082E000CA3
:10052000990B8C179D0724F480914B018C30C4F1FA
:100530008091840090918500049680349C4908F451
:100540007AC08091840090918500049676C0809155
:100550004B01082E000C990B8C179D07C4F6E091F7
:100560004B018E2FEE0F990BFC01EE0FFF1FE80FD2
:10057000F91FE859FE4F808186FFC9CFE0914B01FA
:100580008E2FEE0F990BFC01EE0FFF1FE80FF91FE6
:10059000E859FE4F808160E08F730E943201B7CF2F
:1005A0002091840030918500E0914B018E2FEE0F59
:1005B000990BFC01EE0FFF1FE80FF91FE859FE4FE2
:1005C00081819281820F931F90938900809388008C
:1005D000E0914B018E2FEE0F990BFC01EE0FFF1FE8
:1005E000E80FF91FE859FE4F808186FF11C0E091A6
:1005F0004B018E2FEE0F990BFC01EE0FFF1FE80F42
:10060000F91FE859FE4F808161E08F730E9432012B
:10061000FF91EF91DF91CF91BF91AF919F918F911A
:100620007F916F915F914F913F912F910F900FBEEE
:100630000F901F90189580E49CE990938900809317
:1006400088008FEF80934B01E3CFCF93DF93CDB73B
:10065000DEB761970FB6F894DEBF0FBECDBF7894BA
:1006600084B5826084BD84B5816084BD85B58260B7
:1006700085BD85B5816085BD80916E008160809368
:100680006E001092810080918100826080938100D1
:1006900080918100816080938100809180008160E1
:1006A000809380008091B10084608093B10080913C
:1006B000B00081608093B00080917A008460809364
:1006C0007A0080917A00826080937A0080917A002B
:1006D000816080937A0080917A00806880937A00AC
:1006E0001092C10080918C018C3008F051C061E003
:1006F00088E00E94600180918C01282F30E0F90190
:10070000EE0FFF1FE20FF31FE859FE4F9081907C20
:100710009860908310928D0110928E012CE0622FD0
:100720000E944F07829FB001112430E020E0AB010E
:10073000420F531FFA01EE0FFF1FE40FF51FE85998
:10074000FE4F908196FD16C02F5F3F4F2C30310534
:1007500071F781110FC01092800082E080938100B8
:100760001092850010928400B19A80916F0082608F
:1007700080936F00E0918C018E2F90E0FC01EE0FD2
:10078000FF1FE80FF91FE859FE4F808180648083C6
:100790008AE590E00E948D0060E085E00E946001A3
:1007A00061E08DE00E94600161E087E00E946001ED
:1007B00060E087E00E943201B8E44B2EB8EE5B2E79
:1007C00066246394712CE4EBF0E08491E0EAF0E0BD
:1007D00024912983ECE8F0E01491112309F422C25A
:1007E00081110E940901E12FF0E0EE0FFF1FE8598F
:1007F000FF4FA591B491EC9139813E2309F412C2C7
:1008000061E087E00E943201312C212C1D861E867A
:100810001F86188A912C812CC12CD12C760142E0A4
:1008200050E05A8349830E9491016C197D098E0919
:100830009F098401092C000C220B330B06171707A4
:100840002807390708F0B1C180915D0190915E01E0
:10085000880F991FFC01E55DFE4FA081B181B8872B
:10086000AF839D01032E000C440B550B29873A875B
:100870004B875C87835F9E4FDC010D911C918091BB
:100880000001893009F07AC0E2E7F0E0F491F98BD9
:10089000F7FD6CC161E089E00E946001F989FF23E6
:1008A00021F02989223009F0C7C14801B12CA12CBF
:1008B00060E072E18AE790E0A50198010E94EC06F1
:1008C0002B833C834D835E8369017A0131E0C31A37
:1008D000D108E108F1084FEFC416D104E104F10496
:1008E00009F00CF40CC160E472E48FE090E0A50123
:1008F00098010E94EC0669017A0181E0C81AD108CA
:10090000E108F1089989923009F0AFC082E0AFEFB9
:10091000CA16D104E104F10409F00CF43BC260E909
:1009200070ED83E090E0A50198010E94EC0669015A
:100930007A01B1E0CB1AD108E108F10883E0EFEFCA
:10094000CE16D104E104F10409F00CF423C2C30172
:10095000B201A50198010E94EC0669017A01A1E0AB
:10096000CA1AD108E108F108BFEFCB16D104E1049F
:10097000F10411F00CF09BC084E00CC28F3F09F031
:10098000F5C089E080930001E2E7F0E0F491F98B93
:10099000FF3F09F4EBC0F13031F158F0F23009F4C7
:1009A00041C0398937FDE2C061E089E00E94600101
:1009B00078CF14BC15BC84B5826084BD85B58160D8
:1009C00085BDE0E9F0E08491E82FF0E0EE0FFF1F35
:1009D000E358FF4F85919491E4EAF0E0849180938D
:1009E0005001198A57CF1092800010928100809197
:1009F0008100886080938100809181008160809374
:100A00008100E0E9F0E08491E82FF0E0EE0FFF1FB5
:100A1000E358FF4F85919491E4EAF0E0849180934C
:100A20004F0138CF1092B0001092B1008091B00009
:100A300082608093B0008091B10081608093B100AA
:100A4000E0E9F0E08491E82FF0E0EE0FFF1FE358BB
:100A5000FF4F8591949190934E0180934D01E4EA6C
:100A6000F0E0849180934C0115CFFFEFCF16D104B5
:100A7000E104F10409F00CF4DDC0C301B201A501E9
:100A800098010E94EC0669017A0181E0C81AD10838
:100A9000E108F1089989992309F448C12FEFC2169A
:100AA000D104E104F10409F00CF466CF48C164E21A
:100AB00074EF80E090E0A50194010E94EC066901CA
:100AC0007A01A1E0CA1AD108E108F10885E0BFEF78
:100AD000CB16D104E104F10409F008F45BC162E132
:100AE0007AE780E090E0A50194010E94EC0669019C
:100AF0007A01F1E0CF1AD108E108F10832C181E0B2
:100B00002989211147C195B5987F892B85BD898594
:100B10009A85AB85BC852FEF3FEFA901892B8A2BE6
:100B20008B2B69F09801220F331FAF81B8850E948B
:100B30006F0728EE33E040E050E00E941E079989DD
:100B4000913009F4A7C0923009F4C5C091110EC0CC
:100B5000C7BC2093590130935A0140935B015093D5
:100B60005C0180916E00826080936E0080915D01D7
:100B700090915E01FC01EE0FFF1FE55DFE4F80804E
:100B8000918001966FE070E00E945B0790935E0198
:100B900080935D010E9729F4A981BA811197BA83D8
:100BA000A9830E9491016B017C010E9491012D8516
:100BB0003E854F855889621B730B840B950B6B3FE9
:100BC000710581059105B0F00E9491016D877E87C6
:100BD0008F87988BF101EE0FFF1FEF5FFE4F808133
:100BE00091810E948D00C101019666E070E00E9433
:100BF0005B071C0189819A81892B09F014CE092C8D
:100C0000000CAA08BB080E9491016C197D098E098D
:100C10009F09681579058A059B05A8F360E087E0C0
:100C20000E94320180E090E0892B09F4CCCD0E9433
:100C30000000C9CD82E064CFB12CA12C60E072E14C
:100C40008AE790E0A50198010E94EC0669017A010B
:100C500081E0C81AD108E108F108C114D10491E07B
:100C6000E906F1044CF591E0B989B13009F04FCFB4
:100C700080918100887F892B8093810029853A8526
:100C80004B855C85232B242B252B09F04BCF2FEF95
:100C90003FEFA901D0928900C092880020935501AE
:100CA00030935601409357015093580180916F0043
:100CB000826080936F005ACFC301B201A5019801F1
:100CC0000E94EC0669017A01A1E0CA1AD108E10884
:100CD000F10893E0C9CFC092B30020935101309343
:100CE00052014093530150935401809170008260EF
:100CF000809370003BCF84E05FEFC516D104E10420
:100D0000F10409F008F4FFCECB80DC80ED80FE809A
:100D10009AE0F594E794D794C7949A95D1F741E077
:100D2000C41AD108E108F10885E0EDCE83E0EFEFC9
:100D3000CE16D104E104F10409F00CF4E4CE62E132
:100D40007AE780E090E0A50194010E94EC06690139
:100D50007A01E1E0CE1AD108E108F108F989FF2310
:100D600051F286E09FEFC916D104E104F10491F03D
:100D700088F0CB80DC80ED80FE808AE0F594E794FB
:100D8000D794C7948A95D1F781E0C81AD108E108B1
:100D9000F10887E09091B100987F892B8093B10092
:100DA000B6CE80914A018C3098F491E0980F9093E0
:100DB0004A0180938C0190E0FC01EE0FFF1FE80FC9
:100DC000F91FE859FE4F88EB9BE0928381830895D9
:100DD0008FEF80938C010895052E97FB1EF40094ED
:100DE0000E94030757FD07D00E941E0707FC03D08F
:100DF0004EF40C94030750954095309521953F4F44
:100E00004F4F5F4F089590958095709561957F4FF6
:100E10008F4F9F4F08950E944007A59F900DB49F4C
:100E2000900DA49F800D911D11240895B7FF0C947F
:100E30000B070E940B07821B930B0895A1E21A2E49
:100E4000AA1BBB1BFD010DC0AA1FBB1FEE1FFF1F6E
:100E5000A217B307E407F50720F0A21BB30BE40BBE
:100E6000F50B661F771F881F991F1A9469F7609505
:100E70007095809590959B01AC01BD01CF010895BF
:100E8000A29FB001B39FC001A39F700D811D1124CB
:100E9000911DB29F700D811D1124911D0895991B04
:100EA00079E004C0991F961708F0961B881F7A9561
:100EB000C9F780950895AA1BBB1B51E107C0AA1F63
:100EC000BB1FA617B70710F0A61BB70B881F991FEB
:100ED0005A95A9F780959095BC01CD0108950E947F
:100EE0004007B7FF0895821B930B0895EE0FFF1F75
:100EF0000590F491E02D0994F894FFCFFF2D004167
:100F0000002D008700730087004901B801B801492E
:100F1000014901050149014901490149010501252D
:100F200001250125012501FA00FA00FA00FA00FA6C
:100F300000EE02F401FA00F401EE023200F401FACC
:060F400000F401EE0200C6
:107E0000112484B714BE81FFF0D085E080938100F7
:107E100082E08093C00088E18093C10086E0809377
:107E2000C20080E18093C4008EE0C9D0259A86E02C
:107E300020E33CEF91E0309385002093840096BBD3
:107E4000B09BFECF1D9AA8958150A9F7CC24DD24C4
:107E500088248394B5E0AB2EA1E19A2EF3E0BF2EE7
:107E6000A2D0813461F49FD0082FAFD0023811F036
:107E7000013811F484E001C083E08DD089C08234E0
:107E800011F484E103C0853419F485E0A6D080C0E4
:107E9000853579F488D0E82EFF2485D0082F10E0AE
:107EA000102F00270E291F29000F111F8ED06801E7
:107EB0006FC0863521F484E090D080E0DECF843638
:107EC00009F040C070D06FD0082F6DD080E0C81688
:107ED00080E7D80618F4F601B7BEE895C0E0D1E017
:107EE00062D089930C17E1F7F0E0CF16F0E7DF06D8
:107EF00018F0F601B7BEE89568D007B600FCFDCFD4
:107F0000A601A0E0B1E02C9130E011968C91119780
:107F100090E0982F8827822B932B1296FA010C0160
:107F200087BEE89511244E5F5F4FF1E0A038BF0790
:107F300051F7F601A7BEE89507B600FCFDCF97BE46
:107F4000E89526C08437B1F42ED02DD0F82E2BD052
:107F50003CD0F601EF2C8F010F5F1F4F84911BD097
:107F6000EA94F801C1F70894C11CD11CFA94CF0C13
:107F7000D11C0EC0853739F428D08EE10CD085E9AC
:107F80000AD08FE07ACF813511F488E018D01DD067
:107F900080E101D065CF982F8091C00085FFFCCF94
:107FA0009093C60008958091C00087FFFCCF809118
:107FB000C00084FD01C0A8958091C6000895E0E648
:107FC000F0E098E1908380830895EDDF803219F02E
:107FD00088E0F5DFFFCF84E1DECF1F93182FE3DFCA
:107FE0001150E9F7F2DF1F91089580E0E8DFEE27F6
:047FF000FF270994CA
:027FFE00040479
:00000001FF
