:100000000C9463000C948B000C948B000C948B006C
:100010000C948B000C948B000C948B000C9450026D
:100020000C948B000C948B000C948B000C94D202DB
:100030000C948B000C948B000C948B000C948B0014
:100040000C9406020C948B000C948B000C948B0087
:100050000C948B000C948B000C948B000C948B00F4
:100060000C948B000C948B000000000023002600F1
:1000700029000200000000240027002A00000000E0
:1000800000250028002B00040404040404040402D6
:100090000202020202030303030303010204081025
:1000A00020408001020408102001020408102000F2
:1000B0000000080002010000030407000000000027
:1000C00000000000B20711241FBECFEFD8E0DEBF52
:1000D000CDBF11E0A0E0B1E0EEEBF0E102C0059091
:1000E0000D92AA34B107D9F721E0AAE4B1E001C02A
:1000F0001D92AF38B207E1F710E0C3E6D0E004C0CC
:100100002197FE010E945708C236D107C9F70E9405
:100110008E030C945D080C940000CF92DF92EF9256
:10012000FF92DC01A03282E0B807D4F5A53BB1050F
:1001300014F0A4EBB0E040918D0128E830E0241BDE
:10014000310947FD3395220F331F220F331F6901F9
:10015000330FEE08FF0840918E0128E532E0241BA2
:10016000310947FD3395220F331F220F331F032E12
:10017000000C440B550B2C193D094E095F09B7FFC4
:1001800002C0B0E0A0E00E94F70724EB30E040E0BE
:1001900050E00E94CD07C20ED31EE41EF51ED6010C
:1001A000E0918C01EC3080F520918D0188E890E0A1
:1001B000821B910927FD9395880F991F880F991F1E
:1001C000A817B90784F020918E0188E592E0821B80
:1001D000910927FD9395880F991F880F991FA817DC
:1001E000B9070CF4CD010297880F991F4FB7F89407
:1001F0002E2F30E0F901EE0FFF1FE20FF31FE85939
:10020000FE4F928381834FBFFF90EF90DF90CF909E
:100210000895833081F028F4813099F08230A9F07C
:1002200008958730A9F08830C9F08430B1F4809106
:1002300080008F7D03C0809180008F778093800045
:10024000089584B58F7784BD089584B58F7DFBCFE5
:100250008091B0008F778093B00008958091B000B6
:100260008F7DF9CF1F93CF93DF93282F30E0F901D3
:10027000E155FF4F8491F901E556FF4FD491F90103
:10028000E957FF4FC491CC23A9F0162F81110E948A
:100290000901EC2FF0E0EE0FFF1FE358FF4FA5918F
:1002A000B4918FB7F894EC91111108C0D095DE236A
:1002B000DC938FBFDF91CF911F910895DE2BF8CF94
:1002C000CF93DF9390E0FC01E556FF4F24918957CF
:1002D0009F4FFC0184918823D1F090E0880F991FF3
:1002E000FC01ED58FF4FA591B491FC01E358FF4F7D
:1002F000C591D49161110EC09FB7F8948C91E22FF3
:10030000E0958E238C932881E223E8839FBFDF91C1
:10031000CF9108958FB7F894EC91E22BEC938FBFB7
:10032000F6CF3FB7F8948091640190916501A09158
:100330006601B091670126B5A89B05C02F3F19F053
:100340000196A11DB11D3FBFBA2FA92F982F882755
:10035000BC01CD01620F711D811D911D42E0660F30
:10036000771F881F991F4A95D1F708958F929F9202
:10037000AF92BF92CF92DF92EF92FF924B015C015E
:100380000E9491016B017C010E9491016C197D0911
:100390008E099F09683E734081059105A8F321E00D
:1003A000821A9108A108B10888EEC80E83E0D81E11
:1003B000E11CF11C81149104A104B10429F7FF9000
:1003C000EF90DF90CF90BF90AF909F908F90089567
:1003D0002FB7F89460916001709161018091620182
:1003E000909163012FBF0895892B79F410928000BA
:1003F00082E0809381001092850010928400B19A6F
:1004000080916F00826080936F0008951F920F9219
:100410000FB60F9211242F933F938F939F93AF9317
:10042000BF938091600190916101A0916201B091B0
:10043000630130915F0123E0230F2D3758F50196BA
:10044000A11DB11D20935F01809360019093610114
:10045000A0936201B0936301809164019091650162
:10046000A0916601B09167010196A11DB11D809315
:10047000640190936501A0936601B0936701BF91F9
:10048000AF919F918F913F912F910F900FBE0F9041
:100490001F90189526E8230F0296A11DB11DD2CFFB
:1004A0001F920F920FB60F9211242F933F934F93E9
:1004B0005F936F937F938F939F93AF93BF93EF93CC
:1004C000FF938091510190915201A0915301B091FD
:1004D0005401892B8A2B8B2BD1F190914C01E09107
:1004E0004D01F0914E0180818927808380915101D7
:1004F00090915201A0915301B09154011816190620
:100500001A061B069CF48091510190915201A09112
:100510005301B09154010197A109B1098093510190
:1005200090935201A0935301B0935401FF91EF9126
:10053000BF91AF919F918F917F916F915F914F91FB
:100540003F912F910F900FBE0F901F9018958091A3
:100550000001E2E7F0E0E4919FEF90930001E130C9
:1005600051F030F0E23069F060E00E943201DECFFD
:1005700010926E00F9CF90916F009D7F90936F0065
:10058000F3CF909170009D7F9093700091E09093D5
:10059000B0009091B100987F94609093B100109258
:1005A000B300E2CF1F920F920FB60F9211242F9338
:1005B0003F934F935F936F937F938F939F93AF93EB
:1005C000BF93CF93DF93EF93FF9380914B01C09143
:1005D0004A01D0E087FF24C0109285001092840069
:1005E00080914B018F5F80934B0180914B01082ECE
:1005F000000C990B8C179D0724F480914B018C30D3
:10060000C4F18091840090918500049680349C49C7
:1006100008F47AC08091840090918500049676C099
:1006200080914B01082E000C990B8C179D07C4F686
:10063000E0914B018E2FEE0F990BFC01EE0FFF1F87
:10064000E80FF91FE859FE4F808186FFC9CFE0917E
:100650004B018E2FEE0F990BFC01EE0FFF1FE80FE1
:10066000F91FE859FE4F808160E08F730E943201CC
:10067000B7CF2091840030918500E0914B018E2FFF
:10068000EE0F990BFC01EE0FFF1FE80FF91FE85961
:10069000FE4F81819281820F931F909389008093F6
:1006A0008800E0914B018E2FEE0F990BFC01EE0FAD
:1006B000FF1FE80FF91FE859FE4F808186FF11C028
:1006C000E0914B018E2FEE0F990BFC01EE0FFF1FF7
:1006D000E80FF91FE859FE4F808161E08F730E9497
:1006E0003201FF91EF91DF91CF91BF91AF919F9137
:1006F0008F917F916F915F914F913F912F910F90CB
:100700000FBE0F901F90189580E49CE9909389008C
:10071000809388008FEF80934B01E3CFCF93DF93DB
:10072000CDB7DEB761970FB6F894DEBF0FBECDBF71
:10073000789484B5826084BD84B5816084BD85B5BC
:10074000826085BD85B5816085BD80916E008160C8
:1007500080936E001092810080918100826080936E
:100760008100809181008160809381008091800070
:100770008160809380008091B10084608093B1009B
:100780008091B00081608093B00080917A00846095
:1007900080937A0080917A00826080937A008091C1
:1007A0007A00816080937A0080917A0080688093DB
:1007B0007A001092C10080918C018C3008F043C007
:1007C00061E088E00E94600180918C01282F30E078
:1007D000F901EE0FFF1FE20FF31FE859FE4F908162
:1007E000907C9860908310928D0110928E012CE085
:1007F000622F0E94300890E0829FB001112430E007
:1008000020E0AB01420F531FFA01EE0FFF1FE40F70
:10081000F51FE859FE4F408146FD07C02F5F3F4F4F
:100820002C30310571F70E94F401E0918C018E2F7C
:1008300090E0FC01EE0FFF1FE80FF91FE859FE4F93
:100840008081806480838AE590E00E948D0060E072
:1008500085E00E94600161E087E00E94600160E045
:1008600087E00E94320162E370E080E090E00E9445
:10087000B601E0918C018E2F90E0FC01EE0FFF1F7E
:10088000E80FF91FE859FE4F80818F7B808378E461
:10089000472E78EE572E66246394712CE4EBF0E03B
:1008A0008491E0EAF0E024912983ECE8F0E01491EF
:1008B000112309F44BC181110E940901E12FF0E0DD
:1008C000EE0FFF1FE859FF4FA591B491EC913981CC
:1008D0003E2309F43BC180918C018C3008F043C069
:1008E00061E088E00E94600180918C01282F30E057
:1008F000F901EE0FFF1FE20FF31FE859FE4F908141
:10090000907C9860908310928D0110928E012CE063
:10091000622F0E943008829FB001112430E020E055
:10092000AB01420F531FFA01EE0FFF1FE40FF51F3B
:10093000E859FE4F908196FD08C02F5F3F4F2C3045
:10094000310571F790E00E94F401E0918C018E2F47
:1009500090E0FC01EE0FFF1FE80FF91FE859FE4F72
:1009600080818064808361E087E00E94320168ECCE
:1009700070E080E090E00E94B6011A8219821D8624
:100980001E861F86188A912C812CC12CD12C7601B1
:1009900012E0212E312C0E94E8016C197D098E098C
:1009A0009F098401092C000C220B330B0617170733
:1009B0002807390708F0E7C180915D0190915E0139
:1009C000880F991FFC01E55DFE4FA081B181B887BA
:1009D000AF839D01032E000C440B550B29873A87EA
:1009E0004B875C87835F9E4FDC010D911C9180914A
:1009F0000001893009F0B2C0E2E7F0E0F491F98B30
:100A0000F7FDA4C161E089E00E946001F989FF233C
:100A100021F02989223009F0F0C14801B12CA12C24
:100A200060E072E18AE790E0A50198010E94CD079D
:100A30002B833C834D835E8369017A0131E0C31AC5
:100A4000D108E108F1084FEFC416D104E104F10424
:100A500009F00CF444C160E472E48FE090E0A50179
:100A600098010E94CD0769017A0181E0C81AD10876
:100A7000E108F1089989923009F0E7C082E0AFEF10
:100A8000CA16D104E104F10409F00CF464C260E96F
:100A900070ED83E090E0A50198010E94CD07690107
:100AA0007A01B1E0CB1AD108E108F10883E0EFEF59
:100AB000CE16D104E104F10409F00CF44CC2C301D8
:100AC000B201A50198010E94CD0769017A01A1E058
:100AD000CA1AD108E108F108BFEFCB16D104E1042E
:100AE000F10411F00CF0D3C084E035C24FEF2416AE
:100AF000340609F050CF092C000CAA08BB080E944C
:100B0000E8016C197D098E099F09681579058A0528
:100B10009B05A8F360E087E00E9432018AE590E03F
:100B20000E948D0062E370E080E090E00E94B601D8
:100B3000E0918C018E2F90E0FC01EE0FFF1FE80F7B
:100B4000F91FE859FE4F80818F7B808380E090E021
:100B5000892B09F4A3CE0E940000A0CE8F3F09F09C
:100B6000F5C089E080930001E2E7F0E0F491F98BB1
:100B7000FF3F09F4EBC0F13031F158F0F23009F4E5
:100B800041C0398937FDE2C061E089E00E9460011F
:100B900040CF14BC15BC84B5826084BD85B581602E
:100BA00085BDE0E9F0E08491E82FF0E0EE0FFF1F53
:100BB000E358FF4F85919491E4EAF0E084918093AB
:100BC0005001198A1FCF10928000109281008091ED
:100BD0008100886080938100809181008160809392
:100BE0008100E0E9F0E08491E82FF0E0EE0FFF1FD4
:100BF000E358FF4F85919491E4EAF0E0849180936B
:100C00004F0100CF1092B0001092B1008091B0005F
:100C100082608093B0008091B10081608093B100C8
:100C2000E0E9F0E08491E82FF0E0EE0FFF1FE358D9
:100C3000FF4F8591949190934E0180934D01E4EA8A
:100C4000F0E0849180934C01DDCEFFEFCF16D1040C
:100C5000E104F10409F00CF4CEC0C301B201A50116
:100C600098010E94CD0769017A0181E0C81AD10874
:100C7000E108F1089989992309F439C1FFEFCF16EA
:100C8000D104E104F10409F00CF42ECF39C164E27F
:100C900074EF80E090E0A50194010E94CD07690106
:100CA0007A01A1E0CA1AD108E108F10885E0BFEF96
:100CB000CB16D104E104F10409F008F44CC162E15F
:100CC0007AE780E090E0A50194010E94CD076901D8
:100CD0007A0181E0C81AD108E108F10823C181E056
:100CE0002989211138C195B5987F892B85BD8985C2
:100CF0009A85AB85BC852FEF3FEFA901892B8A2B05
:100D00008B2B69F09801220F331FAF81B8850E94A9
:100D1000500828EE33E040E050E00E94FF07998938
:100D2000913009F498C0923009F4B6C091110EC008
:100D3000C7BC2093590130935A0140935B015093F3
:100D40005C0180916E00826080936E0080915D01F5
:100D500090915E01FC01EE0FFF1FE55DFE4F80806C
:100D6000918001966FE070E00E943C0890935E01D4
:100D700080935D010E9719F4A1E02A1A31080E94B0
:100D8000E8016B017C010E94E8012D853E854F85BD
:100D90005889621B730B840B950B6B3F71058105A2
:100DA0009105C8F00E94E8016D877E878F87988B38
:100DB000E981FA81EE0FFF1FEF5FFE4F8081918185
:100DC0000E948D0089819A81019666E070E00E9400
:100DD0003C089A8389832114310409F087CE8091DD
:100DE0005D0190915E01069709F0D5CD10925E01EC
:100DF00010925D0180CE82E073CFB12CA12C60E017
:100E000072E18AE790E0A50198010E94CD0769018F
:100E10007A0181E0C81AD108E108F108C114D104AF
:100E200091E0E906F1044CF591E0B989B13009F09F
:100E30005ECF80918100887F892B809381002985F6
:100E40003A854B855C85232B242B252B09F05ACF23
:100E50002FEF3FEFA901D0928900C0928800209324
:100E6000550130935601409357015093580180919A
:100E70006F00826080936F0069CFC301B201A5014A
:100E800098010E94CD0769017A01A1E0CA1AD10830
:100E9000E108F10893E0C9CFC092B300209351015B
:100EA000309352014093530150935401809170004C
:100EB0008260809370004ACF84E09FEFC916D1040E
:100EC000E104F10409F008F40ECFCB80DC80ED8062
:100ED000FE808AE0F594E794D794C7948A95D1F779
:100EE00081E0C81AD108E108F10885E0FCCE83E072
:100EF000EFEFCE16D104E104F10409F00CF4F3CEC7
:100F000062E17AE780E090E0A50194010E94CD07BC
:100F100069017A01E1E0CE1AD108E108F108F98906
:100F2000FF2351F286E05FEFC516D104E104F1041E
:100F300091F088F0CB80DC80ED80FE809AE0F59423
:100F4000E794D794C7949A95D1F741E0C41AD10891
:100F5000E108F10887E09091B100987F892B809398
:100F6000B100C5CE80914A018C3098F491E0980F81
:100F700090934A0180938C0190E0FC01EE0FFF1FDB
:100F8000E80FF91FE859FE4F88EB9BE092838183BD
:100F900008958FEF80938C010895052E97FB1EF422
:100FA00000940E94E40757FD07D00E94FF0707FC4A
:100FB00003D04EF40C94E40750954095309521955C
:100FC0003F4F4F4F5F4F0895909580957095619575
:100FD0007F4F8F4F9F4F08950E942108A59F900D2E
:100FE000B49F900DA49F800D911D11240895B7FF0B
:100FF0000C94EC070E94EC07821B930B0895A1E26E
:101000001A2EAA1BBB1BFD010DC0AA1FBB1FEE1F82
:10101000FF1FA217B307E407F50720F0A21BB30BCD
:10102000E40BF50B661F771F881F991F1A9469F749
:1010300060957095809590959B01AC01BD01CF01A5
:101040000895A29FB001B39FC001A39F700D811DA1
:101050001124911DB29F700D811D1124911D0895C1
:10106000991B79E004C0991F961708F0961B881FFA
:101070007A95C9F780950895AA1BBB1B51E107C05B
:10108000AA1FBB1FA617B70710F0A61BB70B881F18
:10109000991F5A95A9F780959095BC01CD010895A7
:1010A0000E942108B7FF0895821B930B0895EE0F4D
:0E10B000FF1F0590F491E02D0994F894FFCFF6
:1010BE00FF2D0041002D008700730087004901B805
:1010CE0001B8014901490105014901490149014997
:1010DE000105012501250125012501FA00FA00FA75
:1010EE0000FA00FA00EE02F401FA00F401EE023208
:0A10FE0000F401FA00F401EE020014
:00000001FF
